{
  "_format": "hh3-artifact-1",
  "contractName": "LeaseVault",
  "sourceName": "contracts/LeaseVault.sol",
  "abi": [
    {
      "inputs": [
        {
          "internalType": "address",
          "name": "_token",
          "type": "address"
        },
        {
          "internalType": "address",
          "name": "_profileSystem",
          "type": "address"
        }
      ],
      "stateMutability": "nonpayable",
      "type": "constructor"
    },
    {
      "anonymous": false,
      "inputs": [
        {
          "indexed": false,
          "internalType": "uint256",
          "name": "leaseId",
          "type": "uint256"
        },
        {
          "indexed": false,
          "internalType": "uint256",
          "name": "propertyId",
          "type": "uint256"
        },
        {
          "indexed": false,
          "internalType": "address",
          "name": "landlord",
          "type": "address"
        }
      ],
      "name": "LeaseApproved",
      "type": "event"
    },
    {
      "anonymous": false,
      "inputs": [
        {
          "indexed": false,
          "internalType": "uint256",
          "name": "leaseId",
          "type": "uint256"
        }
      ],
      "name": "LeaseEnded",
      "type": "event"
    },
    {
      "anonymous": false,
      "inputs": [
        {
          "indexed": false,
          "internalType": "uint256",
          "name": "leaseId",
          "type": "uint256"
        },
        {
          "indexed": false,
          "internalType": "uint256",
          "name": "propertyId",
          "type": "uint256"
        },
        {
          "indexed": false,
          "internalType": "address",
          "name": "tenant",
          "type": "address"
        },
        {
          "indexed": false,
          "internalType": "uint256",
          "name": "startDate",
          "type": "uint256"
        },
        {
          "indexed": false,
          "internalType": "uint256",
          "name": "endDate",
          "type": "uint256"
        }
      ],
      "name": "LeaseRequested",
      "type": "event"
    },
    {
      "anonymous": false,
      "inputs": [
        {
          "indexed": false,
          "internalType": "uint256",
          "name": "propertyId",
          "type": "uint256"
        },
        {
          "indexed": false,
          "internalType": "address",
          "name": "landlord",
          "type": "address"
        }
      ],
      "name": "PropertyListed",
      "type": "event"
    },
    {
      "anonymous": false,
      "inputs": [
        {
          "indexed": false,
          "internalType": "uint256",
          "name": "leaseId",
          "type": "uint256"
        },
        {
          "indexed": false,
          "internalType": "address",
          "name": "tenant",
          "type": "address"
        },
        {
          "indexed": false,
          "internalType": "uint256",
          "name": "amount",
          "type": "uint256"
        }
      ],
      "name": "RentPaid",
      "type": "event"
    },
    {
      "anonymous": false,
      "inputs": [
        {
          "indexed": false,
          "internalType": "address",
          "name": "landlord",
          "type": "address"
        },
        {
          "indexed": false,
          "internalType": "uint256",
          "name": "amount",
          "type": "uint256"
        }
      ],
      "name": "Withdrawn",
      "type": "event"
    },
    {
      "inputs": [
        {
          "internalType": "address",
          "name": "_sender",
          "type": "address"
        },
        {
          "internalType": "uint256",
          "name": "leaseId",
          "type": "uint256"
        }
      ],
      "name": "approveLease",
      "outputs": [],
      "stateMutability": "nonpayable",
      "type": "function"
    },
    {
      "inputs": [],
      "name": "coreToken",
      "outputs": [
        {
          "internalType": "contract Alph4Core",
          "name": "",
          "type": "address"
        }
      ],
      "stateMutability": "view",
      "type": "function"
    },
    {
      "inputs": [
        {
          "internalType": "uint256",
          "name": "leaseId",
          "type": "uint256"
        },
        {
          "internalType": "address",
          "name": "_sender",
          "type": "address"
        }
      ],
      "name": "endLease",
      "outputs": [],
      "stateMutability": "nonpayable",
      "type": "function"
    },
    {
      "inputs": [],
      "name": "leaseCounter",
      "outputs": [
        {
          "internalType": "uint256",
          "name": "",
          "type": "uint256"
        }
      ],
      "stateMutability": "view",
      "type": "function"
    },
    {
      "inputs": [
        {
          "internalType": "uint256",
          "name": "",
          "type": "uint256"
        }
      ],
      "name": "leases",
      "outputs": [
        {
          "internalType": "uint256",
          "name": "id",
          "type": "uint256"
        },
        {
          "internalType": "uint256",
          "name": "propertyId",
          "type": "uint256"
        },
        {
          "internalType": "address",
          "name": "tenant",
          "type": "address"
        },
        {
          "internalType": "uint256",
          "name": "startDate",
          "type": "uint256"
        },
        {
          "internalType": "uint256",
          "name": "endDate",
          "type": "uint256"
        },
        {
          "internalType": "uint256",
          "name": "depositHeld",
          "type": "uint256"
        },
        {
          "internalType": "bool",
          "name": "approved",
          "type": "bool"
        },
        {
          "internalType": "bool",
          "name": "active",
          "type": "bool"
        }
      ],
      "stateMutability": "view",
      "type": "function"
    },
    {
      "inputs": [
        {
          "internalType": "address",
          "name": "landlord",
          "type": "address"
        },
        {
          "internalType": "uint256",
          "name": "rentAmount",
          "type": "uint256"
        },
        {
          "internalType": "uint256",
          "name": "deposit",
          "type": "uint256"
        },
        {
          "internalType": "string",
          "name": "metadataCID",
          "type": "string"
        }
      ],
      "name": "listProperty",
      "outputs": [],
      "stateMutability": "nonpayable",
      "type": "function"
    },
    {
      "inputs": [],
      "name": "owner",
      "outputs": [
        {
          "internalType": "address",
          "name": "",
          "type": "address"
        }
      ],
      "stateMutability": "view",
      "type": "function"
    },
    {
      "inputs": [
        {
          "internalType": "uint256",
          "name": "leaseId",
          "type": "uint256"
        },
        {
          "internalType": "address",
          "name": "tenant",
          "type": "address"
        }
      ],
      "name": "payRent",
      "outputs": [],
      "stateMutability": "nonpayable",
      "type": "function"
    },
    {
      "inputs": [
        {
          "internalType": "address",
          "name": "",
          "type": "address"
        }
      ],
      "name": "pendingWithdrawals",
      "outputs": [
        {
          "internalType": "uint256",
          "name": "",
          "type": "uint256"
        }
      ],
      "stateMutability": "view",
      "type": "function"
    },
    {
      "inputs": [],
      "name": "profileSystem",
      "outputs": [
        {
          "internalType": "contract ProfileSystem",
          "name": "",
          "type": "address"
        }
      ],
      "stateMutability": "view",
      "type": "function"
    },
    {
      "inputs": [
        {
          "internalType": "uint256",
          "name": "",
          "type": "uint256"
        }
      ],
      "name": "properties",
      "outputs": [
        {
          "internalType": "uint256",
          "name": "id",
          "type": "uint256"
        },
        {
          "internalType": "address",
          "name": "landlord",
          "type": "address"
        },
        {
          "internalType": "uint256",
          "name": "rentAmount",
          "type": "uint256"
        },
        {
          "internalType": "uint256",
          "name": "securityDeposit",
          "type": "uint256"
        },
        {
          "internalType": "string",
          "name": "metadataCID",
          "type": "string"
        },
        {
          "internalType": "bool",
          "name": "exists",
          "type": "bool"
        }
      ],
      "stateMutability": "view",
      "type": "function"
    },
    {
      "inputs": [],
      "name": "propertyCounter",
      "outputs": [
        {
          "internalType": "uint256",
          "name": "",
          "type": "uint256"
        }
      ],
      "stateMutability": "view",
      "type": "function"
    },
    {
      "inputs": [
        {
          "internalType": "uint256",
          "name": "",
          "type": "uint256"
        },
        {
          "internalType": "uint256",
          "name": "",
          "type": "uint256"
        }
      ],
      "name": "propertyLeases",
      "outputs": [
        {
          "internalType": "uint256",
          "name": "",
          "type": "uint256"
        }
      ],
      "stateMutability": "view",
      "type": "function"
    },
    {
      "inputs": [
        {
          "internalType": "address",
          "name": "tenant",
          "type": "address"
        },
        {
          "internalType": "uint256",
          "name": "propertyId",
          "type": "uint256"
        },
        {
          "internalType": "uint256",
          "name": "startDate",
          "type": "uint256"
        },
        {
          "internalType": "uint256",
          "name": "endDate",
          "type": "uint256"
        }
      ],
      "name": "requestLease",
      "outputs": [],
      "stateMutability": "nonpayable",
      "type": "function"
    },
    {
      "inputs": [
        {
          "internalType": "address",
          "name": "_sender",
          "type": "address"
        }
      ],
      "name": "withdraw",
      "outputs": [],
      "stateMutability": "nonpayable",
      "type": "function"
    }
  ],
  "bytecode": "0x6080604052348015600e575f5ffd5b50604051611484380380611484833981016040819052602b916084565b5f80546001600160a01b039384166001600160a01b031991821617909155600180549290931691811691909117909155600280549091163317905560b0565b80516001600160a01b0381168114607f575f5ffd5b919050565b5f5f604083850312156094575f5ffd5b609b83606a565b915060a760208401606a565b90509250929050565b6113c7806100bd5f395ff3fe608060405234801561000f575f5ffd5b50600436106100f0575f3560e01c80638da5cb5b11610093578063d090e47e11610063578063d090e47e14610280578063e3caea5014610289578063f3f437031461029c578063f7b10808146102bb575f5ffd5b80638da5cb5b14610234578063a363f03a14610247578063aa3d20ef1461025a578063bbdd82c01461026d575f5ffd5b806351cff8d9116100ce57806351cff8d91461014d578063744e08121461016257806381736973146101755780638927a10614610188575f5ffd5b806304368923146100f45780630c2b72e9146101105780633e5d85a61461013a575b5f5ffd5b6100fd60045481565b6040519081526020015b60405180910390f35b5f54610122906001600160a01b031681565b6040516001600160a01b039091168152602001610107565b6100fd610148366004610ff3565b6102e0565b61016061015b36600461102e565b61030b565b005b61016061017036600461104e565b610475565b610160610183366004611076565b6106e9565b6101e96101963660046110a0565b600660208190525f91825260409091208054600182015460028301546003840154600485015460058601549590960154939592946001600160a01b03909216939092919060ff8082169161010090041688565b6040805198895260208901979097526001600160a01b03909516958701959095526060860192909252608085015260a084015290151560c0830152151560e082015261010001610107565b600254610122906001600160a01b031681565b610160610255366004611076565b6108fd565b6101606102683660046110b7565b610b0f565b600154610122906001600160a01b031681565b6100fd60035481565b610160610297366004611145565b610c5c565b6100fd6102aa36600461102e565b60086020525f908152604090205481565b6102ce6102c93660046110a0565b610e53565b6040516101079695949392919061117b565b6007602052815f5260405f2081815481106102f9575f80fd5b905f5260205f20015f91509150505481565b6001600160a01b0381165f908152600860205260409020548061036b5760405162461bcd60e51b81526020600482015260136024820152724e6f7468696e6720746f20776974686472617760681b60448201526064015b60405180910390fd5b6001600160a01b038281165f818152600860205260408082208290559054905163a9059cbb60e01b81526004810192909252602482018490529091169063a9059cbb906044016020604051808303815f875af11580156103cd573d5f5f3e3d5ffd5b505050506040513d601f19601f820116820180604052508101906103f191906111dd565b61042f5760405162461bcd60e51b815260206004820152600f60248201526e15da5d1a191c985dc819985a5b1959608a1b6044820152606401610362565b604080516001600160a01b0384168152602081018390527f7084f5476618d8e60b11ef0d7d3f06914655adb8793e28ff7f018d4c76d505d5910160405180910390a15050565b5f818152600660209081526040808320600180820154855260059093529220908101546001600160a01b038581169116146104f25760405162461bcd60e51b815260206004820152601960248201527f4f6e6c79206c616e646c6f72642063616e20617070726f7665000000000000006044820152606401610362565b600682015460ff161561053a5760405162461bcd60e51b815260206004820152601060248201526f105b1c9958591e48185c1c1c9bdd995960821b6044820152606401610362565b5f8160030154826002015461054f9190611210565b5f5460028501546040516323b872dd60e01b81526001600160a01b0391821660048201523060248201526044810184905292935016906323b872dd906064016020604051808303815f875af11580156105aa573d5f5f3e3d5ffd5b505050506040513d601f19601f820116820180604052508101906105ce91906111dd565b61060b5760405162461bcd60e51b815260206004820152600e60248201526d14185e5b595b9d0819985a5b195960921b6044820152606401610362565b600282015460018301546001600160a01b03165f908152600860205260408120805490919061063b908490611210565b90915550506003820154600584015560068301805461ffff1916610101179055600180840154908301546040805187815260208101939093526001600160a01b03909116908201527f4b993d37377b34cd1e3179e40d54109a0013341f20dcfdd0320961816762c1099060600160405180910390a160028301546106c9906001600160a01b0316600a610f1c565b60018201546106e2906001600160a01b03166005610f1c565b5050505050565b5f82815260066020818152604080842060018101548552600590925290922090820154610100900460ff166107515760405162461bcd60e51b815260206004820152600e60248201526d4c6561736520696e61637469766560901b6044820152606401610362565b60018101546001600160a01b038481169116148061077e575060028201546001600160a01b038481169116145b6107bb5760405162461bcd60e51b815260206004820152600e60248201526d139bdd08185d5d1a1bdc9a5e995960921b6044820152606401610362565b600582015415610885575f546002830154600584015460405163a9059cbb60e01b81526001600160a01b039283166004820152602481019190915291169063a9059cbb906044016020604051808303815f875af115801561081e573d5f5f3e3d5ffd5b505050506040513d601f19601f8201168201806040525081019061084291906111dd565b61087e5760405162461bcd60e51b815260206004820152600d60248201526c1499599d5b990819985a5b1959609a1b6044820152606401610362565b5f60058301555b60068201805461ff00191690556040518481527f9bbc71338da3ea3da7477f5960427aa0fe6e98aeced78a369dd1b4357a50b9f19060200160405180910390a160028201546108de906001600160a01b03166003610f1c565b60018101546108f7906001600160a01b03166003610f1c565b50505050565b5f82815260066020818152604080842060018101548552600590925290922090820154610100900460ff1680156109385750600682015460ff165b6109755760405162461bcd60e51b815260206004820152600e60248201526d4c6561736520696e61637469766560901b6044820152606401610362565b60028201546001600160a01b038481169116146109c15760405162461bcd60e51b815260206004820152600a602482015269139bdd081d195b985b9d60b21b6044820152606401610362565b5f5460028201546040516323b872dd60e01b81526001600160a01b03868116600483015230602483015260448201929092529116906323b872dd906064016020604051808303815f875af1158015610a1b573d5f5f3e3d5ffd5b505050506040513d601f19601f82011682018060405250810190610a3f91906111dd565b610a825760405162461bcd60e51b815260206004820152601460248201527314995b9d081d1c985b9cd9995c8819985a5b195960621b6044820152606401610362565b600281015460018201546001600160a01b03165f9081526008602052604081208054909190610ab2908490611210565b90915550506002810154604080518681526001600160a01b038616602082015280820192909252517f63e55317e25c0cab3a2de23ee0e244496daea0c1c2b8e272bbc01722b96bb9ae9181900360600190a16108f7836002610f1c565b60038054905f610b1e83611229565b91905055506040518060c001604052806003548152602001866001600160a01b0316815260200185815260200184815260200183838080601f0160208091040260200160405190810160405280939291908181526020018383808284375f92018290525093855250506001602093840181905260038054845260058552604093849020865181559486015191850180546001600160a01b0319166001600160a01b03909316929092179091559184015160028401555060608301519082015560808201516004820190610bf190826112d6565b5060a091909101516005909101805460ff1916911515919091179055600354604080519182526001600160a01b03871660208301527ff87f2a75e739b4da82608cb2e6016f1e1d5059321f8ea6869955aeba65012c75910160405180910390a16106e2856005610f1c565b5f838152600560208190526040909120015460ff16610cb25760405162461bcd60e51b8152602060048201526012602482015271141c9bdc195c9d1e481b9bdd08199bdd5b9960721b6044820152606401610362565b818111610cf15760405162461bcd60e51b815260206004820152600d60248201526c496e76616c696420646174657360981b6044820152606401610362565b60048054905f610d0083611229565b90915550506040805161010080820183526004805480845260208085018981526001600160a01b03808c16878901908152606088018b8152608089018b81525f60a08b0181815260c08c0182815260e08d018381529983526006808a528e84209d518e55975160018e810191909155955160028e018054919098166001600160a01b031990911617909655925160038c015590518a890155905160058a015591519790920180549451151590960261ff00199715159790971661ffff19909416939093179590951790935587815260078352848120825481549586018255908252929020909201555490517f1cd0f593f985288fada438ba7bf9b9b8fd9ccf8ad326859febd28b6c3399bedb91610e4591869088908790879094855260208501939093526001600160a01b039190911660408401526060830152608082015260a00190565b60405180910390a150505050565b60056020525f90815260409020805460018201546002830154600384015460048501805494956001600160a01b039094169492939192610e9290611255565b80601f0160208091040260200160405190810160405280929190818152602001828054610ebe90611255565b8015610f095780601f10610ee057610100808354040283529160200191610f09565b820191905f5260205f20905b815481529060010190602001808311610eec57829003601f168201915b5050506005909301549192505060ff1686565b6001546040516305cfa06f60e01b81526001600160a01b038481166004830152909116906305cfa06f90602401602060405180830381865afa158015610f64573d5f5f3e3d5ffd5b505050506040513d601f19601f82011682018060405250810190610f8891906111dd565b15610fef57600154604051637ad9e76d60e11b81526001600160a01b038481166004830152602482018490529091169063f5b3ceda906044015f604051808303815f87803b158015610fd8575f5ffd5b505af1158015610fea573d5f5f3e3d5ffd5b505050505b5050565b5f5f60408385031215611004575f5ffd5b50508035926020909101359150565b80356001600160a01b0381168114611029575f5ffd5b919050565b5f6020828403121561103e575f5ffd5b61104782611013565b9392505050565b5f5f6040838503121561105f575f5ffd5b61106883611013565b946020939093013593505050565b5f5f60408385031215611087575f5ffd5b8235915061109760208401611013565b90509250929050565b5f602082840312156110b0575f5ffd5b5035919050565b5f5f5f5f5f608086880312156110cb575f5ffd5b6110d486611013565b94506020860135935060408601359250606086013567ffffffffffffffff8111156110fd575f5ffd5b8601601f8101881361110d575f5ffd5b803567ffffffffffffffff811115611123575f5ffd5b886020828401011115611134575f5ffd5b959894975092955050506020019190565b5f5f5f5f60808587031215611158575f5ffd5b61116185611013565b966020860135965060408601359560600135945092505050565b86815260018060a01b038616602082015284604082015283606082015260c060808201525f83518060c0840152806020860160e085015e5f60e0828501015260e0601f19601f83011684010191505082151560a0830152979650505050505050565b5f602082840312156111ed575f5ffd5b81518015158114611047575f5ffd5b634e487b7160e01b5f52601160045260245ffd5b80820180821115611223576112236111fc565b92915050565b5f6001820161123a5761123a6111fc565b5060010190565b634e487b7160e01b5f52604160045260245ffd5b600181811c9082168061126957607f821691505b60208210810361128757634e487b7160e01b5f52602260045260245ffd5b50919050565b601f8211156112d157805f5260205f20601f840160051c810160208510156112b25750805b601f840160051c820191505b818110156106e2575f81556001016112be565b505050565b815167ffffffffffffffff8111156112f0576112f0611241565b611304816112fe8454611255565b8461128d565b6020601f821160018114611336575f831561131f5750848201515b5f19600385901b1c1916600184901b1784556106e2565b5f84815260208120601f198516915b828110156113655787850151825560209485019460019092019101611345565b508482101561138257868401515f19600387901b60f8161c191681555b50505050600190811b0190555056fea2646970667358221220f147e83708c17a21bc2a0f92e27754a51d3486da05d5e4211d1f8e9a963080a364736f6c634300081c0033",
  "linkReferences": {},
  "deployedLinkReferences": {},
  "immutableReferences": {},
  "inputSourceName": "project/contracts/LeaseVault.sol",
  "buildInfoId": "solc-0_8_28-1d27e5e002dbd610747a83af7205162316baac86"
}