{
  "_format": "hh3-artifact-1",
  "contractName": "ProfileSystem",
  "sourceName": "contracts/Profile.sol",
  "abi": [
    {
      "inputs": [
        {
          "internalType": "address",
          "name": "tokenAddress",
          "type": "address"
        },
        {
          "internalType": "uint256",
          "name": "_airdropAmount",
          "type": "uint256"
        }
      ],
      "stateMutability": "nonpayable",
      "type": "constructor"
    },
    {
      "anonymous": false,
      "inputs": [
        {
          "indexed": true,
          "internalType": "address",
          "name": "user",
          "type": "address"
        },
        {
          "indexed": false,
          "internalType": "uint8",
          "name": "role",
          "type": "uint8"
        },
        {
          "indexed": false,
          "internalType": "string",
          "name": "metadataCID",
          "type": "string"
        }
      ],
      "name": "ProfileCreated",
      "type": "event"
    },
    {
      "anonymous": false,
      "inputs": [
        {
          "indexed": true,
          "internalType": "address",
          "name": "user",
          "type": "address"
        },
        {
          "indexed": false,
          "internalType": "uint8",
          "name": "role",
          "type": "uint8"
        },
        {
          "indexed": false,
          "internalType": "string",
          "name": "metadataCID",
          "type": "string"
        }
      ],
      "name": "ProfileUpdated",
      "type": "event"
    },
    {
      "anonymous": false,
      "inputs": [
        {
          "indexed": true,
          "internalType": "address",
          "name": "user",
          "type": "address"
        },
        {
          "indexed": false,
          "internalType": "uint256",
          "name": "newScore",
          "type": "uint256"
        }
      ],
      "name": "ReputationUpdated",
      "type": "event"
    },
    {
      "inputs": [
        {
          "internalType": "address",
          "name": "user",
          "type": "address"
        },
        {
          "internalType": "int256",
          "name": "delta",
          "type": "int256"
        }
      ],
      "name": "adjustReputation",
      "outputs": [],
      "stateMutability": "nonpayable",
      "type": "function"
    },
    {
      "inputs": [],
      "name": "airdropAmount",
      "outputs": [
        {
          "internalType": "uint256",
          "name": "",
          "type": "uint256"
        }
      ],
      "stateMutability": "view",
      "type": "function"
    },
    {
      "inputs": [],
      "name": "coreToken",
      "outputs": [
        {
          "internalType": "contract Alph4Core",
          "name": "",
          "type": "address"
        }
      ],
      "stateMutability": "view",
      "type": "function"
    },
    {
      "inputs": [
        {
          "internalType": "address",
          "name": "_user",
          "type": "address"
        },
        {
          "internalType": "uint8",
          "name": "_role",
          "type": "uint8"
        },
        {
          "internalType": "string",
          "name": "_metadataCID",
          "type": "string"
        }
      ],
      "name": "createProfile",
      "outputs": [],
      "stateMutability": "nonpayable",
      "type": "function"
    },
    {
      "inputs": [
        {
          "internalType": "address",
          "name": "user",
          "type": "address"
        }
      ],
      "name": "getProfile",
      "outputs": [
        {
          "components": [
            {
              "internalType": "address",
              "name": "user",
              "type": "address"
            },
            {
              "internalType": "uint256",
              "name": "reputation",
              "type": "uint256"
            },
            {
              "internalType": "uint8",
              "name": "role",
              "type": "uint8"
            },
            {
              "internalType": "bool",
              "name": "exists",
              "type": "bool"
            },
            {
              "internalType": "string",
              "name": "metadataCID",
              "type": "string"
            }
          ],
          "internalType": "struct ProfileSystem.Profile",
          "name": "",
          "type": "tuple"
        }
      ],
      "stateMutability": "view",
      "type": "function"
    },
    {
      "inputs": [],
      "name": "leaseVault",
      "outputs": [
        {
          "internalType": "address",
          "name": "",
          "type": "address"
        }
      ],
      "stateMutability": "view",
      "type": "function"
    },
    {
      "inputs": [],
      "name": "owner",
      "outputs": [
        {
          "internalType": "address",
          "name": "",
          "type": "address"
        }
      ],
      "stateMutability": "view",
      "type": "function"
    },
    {
      "inputs": [
        {
          "internalType": "address",
          "name": "user",
          "type": "address"
        }
      ],
      "name": "profileExists",
      "outputs": [
        {
          "internalType": "bool",
          "name": "",
          "type": "bool"
        }
      ],
      "stateMutability": "view",
      "type": "function"
    },
    {
      "inputs": [
        {
          "internalType": "address",
          "name": "_leaseVault",
          "type": "address"
        }
      ],
      "name": "setLeaseVault",
      "outputs": [],
      "stateMutability": "nonpayable",
      "type": "function"
    },
    {
      "inputs": [
        {
          "internalType": "uint8",
          "name": "_role",
          "type": "uint8"
        },
        {
          "internalType": "string",
          "name": "_metadataCID",
          "type": "string"
        }
      ],
      "name": "updateProfile",
      "outputs": [],
      "stateMutability": "nonpayable",
      "type": "function"
    }
  ],
  "bytecode": "0x608060405234801561000f575f5ffd5b5060405161103838038061103883398101604081905261002e916100da565b600180546001600160a01b0319166001600160a01b0384169081179091556040805163313ce56760e01b8152905163313ce567916004808201926020929091908290030181865afa158015610085573d5f5f3e3d5ffd5b505050506040513d601f19601f820116820180604052508101906100a99190610111565b6100b490600a610231565b6100be908261023f565b6003555050600480546001600160a01b03191633179055610256565b5f5f604083850312156100eb575f5ffd5b82516001600160a01b0381168114610101575f5ffd5b6020939093015192949293505050565b5f60208284031215610121575f5ffd5b815160ff81168114610131575f5ffd5b9392505050565b634e487b7160e01b5f52601160045260245ffd5b6001815b60018411156101875780850481111561016b5761016b610138565b600184161561017957908102905b60019390931c928002610150565b935093915050565b5f8261019d5750600161022b565b816101a957505f61022b565b81600181146101bf57600281146101c9576101e5565b600191505061022b565b60ff8411156101da576101da610138565b50506001821b61022b565b5060208310610133831016604e8410600b8410161715610208575081810a61022b565b6102145f19848461014c565b805f190482111561022757610227610138565b0290505b92915050565b5f61013160ff84168361018f565b808202811582820484141761022b5761022b610138565b610dd5806102635f395ff3fe608060405234801561000f575f5ffd5b506004361061009b575f3560e01c806338f9ac771161006357806338f9ac771461015a57806388bb5e6c1461016d5780638da5cb5b14610180578063f5b3ceda14610193578063fc2ea8a5146101a6575f5ffd5b806305cfa06f1461009f5780630c2b72e9146100e75780630f53a470146101125780632410e068146101325780633465ebd914610147575b5f5ffd5b6100d26100ad366004610938565b6001600160a01b03165f90815260208190526040902060020154610100900460ff1690565b60405190151581526020015b60405180910390f35b6001546100fa906001600160a01b031681565b6040516001600160a01b0390911681526020016100de565b610125610120366004610938565b6101bd565b6040516100de9190610958565b610145610140366004610938565b610352565b005b6002546100fa906001600160a01b031681565b610145610168366004610a20565b610411565b61014561017b366004610a7d565b6106f2565b6004546100fa906001600160a01b031681565b6101456101a1366004610acc565b6107cb565b6101af60035481565b6040519081526020016100de565b6101f96040518060a001604052805f6001600160a01b031681526020015f81526020015f60ff1681526020015f15158152602001606081525090565b6001600160a01b0382165f90815260208190526040902060020154610100900460ff166102615760405162461bcd60e51b8152602060048201526011602482015270141c9bd99a5b19481b9bdd08199bdd5b99607a1b60448201526064015b60405180910390fd5b6001600160a01b038083165f9081526020818152604091829020825160a08101845281549094168452600181015491840191909152600281015460ff808216938501939093526101009004909116151560608301526003810180546080840191906102cb90610af4565b80601f01602080910402602001604051908101604052809291908181526020018280546102f790610af4565b80156103425780601f1061031957610100808354040283529160200191610342565b820191905f5260205f20905b81548152906001019060200180831161032557829003601f168201915b5050505050815250509050919050565b6004546001600160a01b0316331461039d5760405162461bcd60e51b815260206004820152600e60248201526d139bdd08185d5d1a1bdc9a5e995960921b6044820152606401610258565b6002546001600160a01b0316156103ef5760405162461bcd60e51b81526020600482015260166024820152751319585cd955985d5b1d08185b1c9958591e481cd95d60521b6044820152606401610258565b600280546001600160a01b0319166001600160a01b0392909216919091179055565b6001600160a01b0384165f90815260208190526040902060020154610100900460ff161561047a5760405162461bcd60e51b815260206004820152601660248201527550726f66696c6520616c72656164792065786973747360501b6044820152606401610258565b6040518060a00160405280856001600160a01b031681526020015f81526020018460ff16815260200160011515815260200183838080601f0160208091040260200160405190810160405280939291908181526020018383808284375f9201829052509390945250506001600160a01b0387811682526020828152604092839020855181546001600160a01b0319169316929092178255840151600182015590830151600282018054606086015160ff90931661ffff1990911617610100921515929092029190911790556080830151909150600382019061055c9082610b89565b50905050836001600160a01b03167f70966f35176b2a6172b91565557bd342a01f3348a05670a943801922707d858084848460405161059d93929190610c44565b60405180910390a2600354156106ec576003546001546040516370a0823160e01b81523060048201526001600160a01b03909116906370a0823190602401602060405180830381865afa1580156105f6573d5f5f3e3d5ffd5b505050506040513d601f19601f8201168201806040525081019061061a9190610c7c565b10156106735760405162461bcd60e51b815260206004820152602260248201527f4e6f7420656e6f75676820746f6b656e7320696e2050726f66696c6553797374604482015261656d60f01b6064820152608401610258565b60015460035460405163a9059cbb60e01b81526001600160a01b038781166004830152602482019290925291169063a9059cbb906044016020604051808303815f875af11580156106c6573d5f5f3e3d5ffd5b505050506040513d601f19601f820116820180604052508101906106ea9190610c93565b505b50505050565b335f90815260208190526040902060020154610100900460ff166107515760405162461bcd60e51b8152602060048201526016602482015275141c9bd99a5b1948191bd95cc81b9bdd08195e1a5cdd60521b6044820152606401610258565b335f90815260208190526040902060028101805460ff191660ff86161790556003810161077f838583610cb2565b50336001600160a01b03167fc04b02e1b08059eee81d750199868b51323d15663ed69c12cce08bb62b2ef4178585856040516107bd93929190610c44565b60405180910390a250505050565b6002546001600160a01b031633146108335760405162461bcd60e51b815260206004820152602560248201527f4f6e6c79204c656173655661756c742063616e2075706461746520726570757460448201526430ba34b7b760d91b6064820152608401610258565b6001600160a01b0382165f90815260208190526040902060020154610100900460ff166108965760405162461bcd60e51b8152602060048201526011602482015270141c9bd99a5b19481b9bdd08199bdd5b99607a1b6044820152606401610258565b6001600160a01b0382165f908152602081905260408120600101546108bc908390610d6c565b90505f8112156108c957505f5b6001600160a01b0383165f818152602081815260409182902060010184905590518381527ffc577563f1b9a0461e24abef1e1fcc0d33d3d881f20b5df6dda59de4aae2c821910160405180910390a2505050565b80356001600160a01b0381168114610933575f5ffd5b919050565b5f60208284031215610948575f5ffd5b6109518261091d565b9392505050565b6020815260018060a01b0382511660208201526020820151604082015260ff60408301511660608201526060820151151560808201525f608083015160a08084015280518060c0850152806020830160e086015e5f60e0828601015260e0601f19601f8301168501019250505092915050565b803560ff81168114610933575f5ffd5b5f5f83601f8401126109eb575f5ffd5b50813567ffffffffffffffff811115610a02575f5ffd5b602083019150836020828501011115610a19575f5ffd5b9250929050565b5f5f5f5f60608587031215610a33575f5ffd5b610a3c8561091d565b9350610a4a602086016109cb565b9250604085013567ffffffffffffffff811115610a65575f5ffd5b610a71878288016109db565b95989497509550505050565b5f5f5f60408486031215610a8f575f5ffd5b610a98846109cb565b9250602084013567ffffffffffffffff811115610ab3575f5ffd5b610abf868287016109db565b9497909650939450505050565b5f5f60408385031215610add575f5ffd5b610ae68361091d565b946020939093013593505050565b600181811c90821680610b0857607f821691505b602082108103610b2657634e487b7160e01b5f52602260045260245ffd5b50919050565b634e487b7160e01b5f52604160045260245ffd5b601f821115610b8457805f5260205f20601f840160051c81016020851015610b655750805b601f840160051c820191505b818110156106ea575f8155600101610b71565b505050565b815167ffffffffffffffff811115610ba357610ba3610b2c565b610bb781610bb18454610af4565b84610b40565b6020601f821160018114610be9575f8315610bd25750848201515b5f19600385901b1c1916600184901b1784556106ea565b5f84815260208120601f198516915b82811015610c185787850151825560209485019460019092019101610bf8565b5084821015610c3557868401515f19600387901b60f8161c191681555b50505050600190811b01905550565b60ff8416815260406020820152816040820152818360608301375f818301606090810191909152601f909201601f1916010192915050565b5f60208284031215610c8c575f5ffd5b5051919050565b5f60208284031215610ca3575f5ffd5b81518015158114610951575f5ffd5b67ffffffffffffffff831115610cca57610cca610b2c565b610cde83610cd88354610af4565b83610b40565b5f601f841160018114610d0f575f8515610cf85750838201355b5f19600387901b1c1916600186901b1783556106ea565b5f83815260208120601f198716915b82811015610d3e5786850135825560209485019460019092019101610d1e565b5086821015610d5a575f1960f88860031b161c19848701351681555b505060018560011b0183555050505050565b8082018281125f831280158216821582161715610d9757634e487b7160e01b5f52601160045260245ffd5b50509291505056fea2646970667358221220ff01db927643a2492838451268bf1818595f5dc28238edab08c72d1df6e3bf6f64736f6c634300081c0033",
  "linkReferences": {},
  "deployedLinkReferences": {},
  "immutableReferences": {},
  "inputSourceName": "project/contracts/Profile.sol",
  "buildInfoId": "solc-0_8_28-6e19a152d84e5ca520c013aa5f81eb8d3c961640"
}